:03000000020D9A54
:0C0D9A00787FE4F6D8FD758120020D84FE
:10093200150813041504210C1704160821081510B4
:1009420015081104120413081204110412201508C8
:1009520013041504210C1704160821081510150894
:1009620012041304140C0704112016082108211084
:10097200170816041704211016041704210416047C
:100982001604150413041104122015081304150487
:10099200210C170416082108151015081204130457
:1009A200140C07041120000011081208130814087F
:1009B2001508160817082108FFEAF118F2B7F42AF9
:1009C200F4D7F609F72AF820FFEAF88CF95CFA1551
:1009D200FA6CFB08FB93FC0EFFEAFC48FCB0FD0C32
:1009E200FD36FD84FDCAFE07FFEAFE24FE58FE86A0
:1009F200FE9BFEC2FED4FEF5FFEAF1F3F37BF4D7D1
:100A0200F572F69DF7A8F88CFFEAF8FAF9BEFA6CCF
:100A1200FABDFB4FFBD2FC48FFEAFC7DFCDFFD3652
:100A2200FD5FFDA8FDEAFE24FFEAFE3FFE70FE9B8D
:080A3200FEB0FECBFEE5FF0261
:100D8400758911D2AFD2A8C288D2A9D2ABC28CC203
:060D94008E75086480FE6C
:100D6800EF1FAA0670011E4A6011E4FDEDC394024C
:0B0D780050EEE4FC0CBC7AFC0D80F196
:010D8300224D
:100A3A00C200120800FF900001120819F512EFC453
:100A4A00131313540124FF9200EF5430C4540FFEC1
:100A5A00EF540FFF75F00230003AA4F58285F08357
:100A6A0075F010EE120858E58224FAF582E583340F
:100A7A0009F583E493F50E75F002EFA4F58285F08B
:100A8A008375F010EE120858E58224FBF582E5839F
:100A9A0034098039EFA4F58285F08375F010EE12DF
:100AAA000858E58224BAF582E5833409F583E4938C
:100ABA00F50E75F002EFA4F58285F08375F010EE5D
:100ACA00120858E58224BBF582E5833409F583E4EC
:100ADA0093F50FAF127E007C037DE8120846E4C34B
:100AEA009FFFE49EFE74019400FDE49400FCE4FB85
:100AFA007A01F9F8120CFE8F09AF127E007C037D91
:100B0A00E8120846E4C39FFFE49EFE74019400FDC8
:100B1A00E49400FCE4FB7A01F9F8120CFEAF038FAF
:010B2A000AC0
:010B2B0022A7
:100D4200750BFF750C09750D32751001758DFF75E8
:100D52008BFFD28EAB0BAA0CA90D12080070F5C244
:060D62008CC28EC2A0222B
:03000B00020DA63D
:090DA600B2A0850E8C850F8A3283
:03001B00020C8A4A
:100C8A00C0E0C0F0C083C082C0D075D000C000C030
:0D0C9A0001C002C003C004C005C006C007B1
:100CA700E5106019AB0BAA0CA90D120A3A850E8C38
:100CB700850F8AD28C75100075110080020511E529
:100CC70011C395084010C28C7402250DF50DE4354B
:0C0CD7000CF50C75100185098D850A8B49
:100CE300D007D006D005D004D003D002D001D00065
:0B0CF300D0D0D082D083D0F0D0E0320F
:100BEF00750BFF750C09750DAAE590B4FE00E59025
:100BFF00B4FD0B7402250DF50DE4350CF50CE590E5
:100C0F00B4FB0B7404250DF50DE4350CF50CE590D4
:100C1F00B4F70B7406250DF50DE4350CF50CE590C6
:100C2F00B4EF0B7408250DF50DE4350CF50CE590BC
:100C3F00B4DF0B740A250DF50DE4350CF50CE590BA
:100C4F00B4BF0B740C250DF50DE4350CF50CE590C8
:100C5F00B47F0B740E250DF50DE4350CF50C7510E6
:100C6F0001758DFF758BFFD28EAB0BAA0CA90D12E0
:0B0C7F00080070F5C28CC28EC2A022DB
:03000300020B2CC1
:100B2C00C0E0C0D075D000C002C004C005C006C073
:100B3C0007C2A87F147E00120D68D2A8750BFF7532
:100B4C000C09750DAAE590B4FE00E590B4FD0B748C
:100B5C0001250DF50DE4350CF50CE590B4FB0B748B
:100B6C0002250DF50DE4350CF50CE590B4F70B747E
:100B7C0003250DF50DE4350CF50CE590B4EF0B7475
:100B8C0004250DF50DE4350CF50CE590B4DF0B7474
:100B9C0005250DF50DE4350CF50CE590B4BF0B7483
:100BAC0006250DF50DE4350CF50CE590B47F0B74B2
:100BBC0007250DF50DE4350CF50C751001758DFF41
:100BCC00758BFFD28ED28C7F147E00120D68C28C76
:100BDC00C28EC2A0D007D006D005D004D002D0D08F
:030BEC00D0E03224
:10080000BB010689828A83E0225002E722BBFE02F6
:09081000E32289828A83E4932229
:10081900BB010CE58229F582E5833AF583E0225094
:1008290006E92582F8E622BBFE06E92582F8E222DE
:0D083900E58229F582E5833AF583E49322F8
:10084600EF8DF0A4A8F0CF8CF0A428CE8DF0A42EC6
:02085600FE2280
:100CFE00C2D5E830E70FB2D5E4C39BFBE49AFAE421
:100D0E0099F9E498F8EC30E717B2D5120D341208C1
:100D1E00A0E4C39BFBE49AFAE499F9E498F8800303
:100D2E001208A030D50DE4C39FFFE49EFEE49DFDA6
:040D3E00E49CFC2213
:0C085800A42582F582E5F03583F58322AB
:1008640075F008758200EF2FFFEE33FECD33CDCC4B
:1008740033CCC58233C5829BED9AEC99E5829840CE
:100884000CF582EE9BFEED9AFDEC99FC0FD5F0D6AB
:10089400E4CEFBE4CDFAE4CCF9A88222B800C1B9D5
:1008A4000059BA002DEC8BF084CFCECDFCE5F0CB13
:1008B400F97818EF2FFFEE33FEED33FDEC33FCEB4C
:1008C40033FB10D703994004EB99FB0FD8E5E4F907
:1008D400FA227818EF2FFFEE33FEED33FDEC33FCF4
:1008E400C933C910D7059BE99A4007EC9BFCE99AE8
:1008F400F90FD8E0E4C9FAE4CCFB2275F010EF2F2D
:10090400FFEE33FEED33FDCC33CCC833C810D7072C
:100914009BEC9AE899400AED9BFDEC9AFCE899F867
:0E0924000FD5F0DAE4CDFBE4CCFAE4C8F922FA
:00000001FF
