:03000000020800F3
:0C080000787FE4F6D8FD758117020847E8
:100966001008C0F9A4B0999282D880908883C6A155
:02097600868E6B
:1008DF00C3EF9430EE9400400DD3EF9439EE9400B3
:1008EF00500474D88014C3EF9441EE94004010D399
:1008FF00EF9446EE9400500774D12FF8E6F580225E
:10090F00C3EF9430EE9400400DD3EF9439EE940082
:10091F00500474D88014C3EF9441EE94004010D368
:10092F00EF9446EE9400500774D12FF8E6F5A0220D
:10095300E4FDE4FCECC39FE49E50030C80F60DBD64
:0209630082F020
:01096500226F
:10093F007598F0758920758BFD758DFDD28ED2ACB3
:04094F00D2AF80FEA5
:0300230002088C44
:10088C00C0E0C0D075D000C000C004C005C006C018
:10089C0007C298309A2CAF99EF24FE601504702291
:1008AC00C29DB2B67F147E00120953AF991208DFB5
:1008BC008010C29DB2B77F147E00120953AF9912FB
:1008CC00090FD29DD007D006D005D004D000D0D0CF
:0308DC00D0E03237
:10080C0002093FE493A3F8E493A34003F68001F2BA
:10081C0008DFF48029E493A3F85407240CC8C333ED
:10082C00C4540F4420C8834004F456800146F6DFBC
:10083C00E4800B0102040810204080900966E47EDD
:10084C00019360BCA3FF543F30E509541FFEE493B1
:10085C00A360010ECF54C025E060A840B8E493A378
:10086C00FAE493A3F8E493A3C8C582C8CAC583CAA3
:10087C00F0A3C8C582C8CAC583CADFE9DEE780BE5B
:01097800007E
:00000001FF
