:03000000020800F3
:0C080000787FE4F6D8FD758129020847D6
:1008F900010800111930313233343536373839416E
:100909004243444546001009C0F9A4B0999282D8DF
:0809190080908883C6A1868E40
:10092200EFC39430400AEFD39439500474D9800E47
:10093200EFC39441400DEFD39446500774D22FF881
:04094200E6F5A02214
:10095E00E4FDE4FCECC39FE49E50030C80F60DBD59
:02096E0082F015
:010970002264
:10088C00AB077FC87E0012095ED29B8B993099FD15
:10089C00C299C29B74192508F8E6F599AF080508AA
:1008AC0074192FF8E6FF120922E508C394104003CF
:0908BC00E4F5083099FDC299220F
:100946007598E0758920758BFD758DFDD28ED2ACBC
:08095600D2AFD2A8D28880FEC6
:030003000208C52B
:1008C500C0E0C0D075D000C000C003C004C005C0E2
:1008D50006C007C2A87F147E0012095ED2A87F0158
:1008E50012088CD007D006D005D004D003D000D094
:0408F500D0D0E0324D
:10080C00020946E493A3F8E493A34003F68001F2B3
:10081C0008DFF48029E493A3F85407240CC8C333ED
:10082C00C4540F4420C8834004F456800146F6DFBC
:10083C00E4800B01020408102040809008F9E47E4B
:10084C00019360BCA3FF543F30E509541FFEE493B1
:10085C00A360010ECF54C025E060A840B8E493A378
:10086C00FAE493A3F8E493A3C8C582C8CAC583CAA3
:10087C00F0A3C8C582C8CAC583CADFE9DEE780BE5B
:0109210000D5
:00000001FF
