:030000000209F4FE
:0C09F400787FE4F6D8FD75811E020A3BF6
:100BC100010B00011000010F0001120001110001D1
:100BD1000C00010D00010E000A15C0F9A4B0999294
:0D0BE10082D8809001090F010A0F01080061
:100AC600E50975F00A84FCE50975F00A84AFF0744F
:100AD600152FF8E6F580D2937F02120AF2C293AF81
:0C0AE6000474152FF8E6F580D2927F0210
:100AF200AD071FED6011E4FEEEC3940250F2E4FD77
:070B02000DBD7AFC0E80F12D
:010B090022C9
:100A8000E51475F00A84FCE51475F00A84AFF0C231
:100A900090C291C292C29374152FF8E6F580D2915C
:100AA0007F02120AF2C29174152CF8E6F580D290FA
:100AB0007F02120AF2C290E51375F00A84FCE51376
:050AC000120ACFC292F2
:010AC500220E
:100B4A00E50A75F00A84FCE50A75F00A84AFF0C27A
:100B5A0090C291C292C29374152FF8E6F580D29191
:100B6A007F02120AF2C29174152CF8E6F580D2902F
:0C0B7A007F02120AF2C290120AC6C29258
:010B8600224C
:050BEF00120AC6C292CB
:010BF40022DE
:100B8700E50A75F00A84FCE50A75F00A84AFF0C23D
:100B970090C291C292C29374152FF8E6F580D29154
:100BA7007F02120AF2C291AF0474152FF8E6F5809E
:090BB700D2907F02120AF2C290F2
:010BC0002212
:03000300020B0AE3
:100B0A00C0E0C0D075D000C005C006C007C2A87F2B
:100B1A001E120AF2D2A8E50EC394025015E50C7013
:100B2A0007750C01F50D8006750C00750D01050E93
:100B3A008003750E00D007D006D005D0D0D0E032A1
:03000B0002093CAB
:10093C00C0E0C0F0C0D075D000C000C004C005C07D
:03094C0006C007DB
:10094F00758C3C758AB00508E50E705BE508640A86
:10095F007023E50BB40102B2B5E510B40102B2A0E9
:10096F00E50FB40102B2A3E512B40102B2A1E51181
:10097F00B40102B2A4E50864147059E50BB4010286
:10098F00B2B5E510B40102B2A0E50FB40102B2A3F3
:10099F00E512B40102B2A1E511B40102B2A415141B
:1009AF001513750800802DE508D3940A5002802195
:1009BF00E508C394145017E50CB40109C292C29311
:1009CF00120B87800FC290C291120BEF8006750831
:0409DF0000120B4AAD
:1009E300D007D006D005D004D000D0D0D0F0D0E0CE
:0109F30032D1
:10080000E4F590F580850914E5092403F513D2AFCA
:10081000758901758C3C758AB0758D3C758BB0D22D
:10082000AFD2A8D288D2A9D28CE4F5A0C2B0C2B10E
:10083000C2B5850914E5092403F513D28CE50E60D1
:1008400046E50C6401702020B60CE509C3941450F1
:100850000530B6FD050920B71DE509D3940A4016F9
:1008600030B7FD1509800F20B60CE50AC39414506B
:100870000530B6FD050A20B7C4E50AD3940A40BD89
:1008800030B7FD150A80B6E514D39403400FE50E8A
:10089000700B120A80D2A0D2A5D2B180EAE514D39F
:1008A0009400400FE50E700B120A80750B01751055
:1008B0000180EAE4F50BF51074032514F514E51333
:1008C000D394004010E50E700C120A80C2A0D2B082
:1008D00075120180E9E4F512E50A2403F514850A8E
:1008E00013E4F5A0C2B0C2B1E513D39403400FE501
:1008F0000E700B120A80D2A3D2A2D2B080EAE51306
:10090000D39400400FE50E700B120A80750B017531
:100910000F0180EAE4F50BF50F74032513F513E5D9
:1009200014D394004010E50E700C120A80C2A3D2BA
:0C093000B175110180E9E4F511020829FD
:100A0000020800E493A3F8E493A34003F68001F204
:100A100008DFF48029E493A3F85407240CC8C333F7
:100A2000C4540F4420C8834004F456800146F6DFC6
:100A3000E4800B0102040810204080900BC1E47E8A
:100A4000019360BCA3FF543F30E509541FFEE493BB
:100A5000A360010ECF54C025E060A840B8E493A382
:100A6000FAE493A3F8E493A3C8C582C8CAC583CAAD
:100A7000F0A3C8C582C8CAC583CADFE9DEE780BE65
:010BEE000006
:00000001FF
