:0A092D000808F9A4B0999282D8805E
:0300030002088C64
:10088C00C0E0C0D075D000C007AFA0EF248160538A
:10089C0024C0604724E0603B24F0602F24F86023E0
:1008AC0024FC601724FE600B14703E7590FE8508C6
:1008BC008080367590FD850980802E7590FB850AA9
:1008CC008080267590F7850B80801E7590EF850CC7
:1008DC008080167590DF850D80800E7590BF850E1B
:1008EC0080800675907F850F8075B0FFD007D0D0C3
:0308FC00D0E03217
:1008FF007590FF75A0FF7580FFE5B0B4FE12D2AF03
:10090F00D2A8D28875B0057590FF75A0FF7580FFCE
:0E091F00E590F460E4C2AFC2A875B0FF80DBC3
:03000000020800F3
:0C080000787FE4F6D8FD75810F020847F0
:10080C000208FFE493A3F8E493A34003F68001F2FB
:10081C0008DFF48029E493A3F85407240CC8C333ED
:10082C00C4540F4420C8834004F456800146F6DFBC
:10083C00E4800B010204081020408090092DE47E16
:10084C00019360BCA3FF543F30E509541FFEE493B1
:10085C00A360010ECF54C025E060A840B8E493A378
:10086C00FAE493A3F8E493A3C8C582C8CAC583CAA3
:10087C00F0A3C8C582C8CAC583CADFE9DEE780BE5B
:0109370000BF
:00000001FF
